:10000000C00C0020591300009B330000891300002E
:10001000891300008913000089130000000000000C
:10002000000000000000000000000000C9110000F6
:1000300089130000000000008111000075330000EA
:100040001913000019130000191300001913000000
:1000500019130000191300001913000019130000F0
:1000600019130000191300001913000019130000E0
:1000700019130000191300001913000019130000D0
:1000800019130000191300001913000019130000C0
:1000900019130000191300001913000019130000B0
:1000A00019130000191300001913000019130000A0
:1000B0001913000019130000191300001913000090
:1000C0001913000019130000191300001913000080
:0C00D000191300001913000019130000A0
:1000DC0053B94AB9002908BF00281CBF4FF0FF31A3
:1000EC004FF0FF3000F06EB9ADF1080C6DE904CEA5
:1000FC0000F006F8DDF804E0DDE9022304B07047F7
:10010C002DE9F047089D0E4604468C46002B40F026
:10011C0081808A42174645D9B2FA82F24AB1C2F1BD
:10012C00200106FA02F320FA01F1974041EA030C90
:10013C0094404FEA174E230CBCFBFEF6B9B20EFBF3
:10014C0016CC43EA0C4306FB01F0984209D9FB1884
:10015C0006F1FF3C80F01581984240F21281023E7C
:10016C003B441B1AA4B2B3FBFEF00EFB103344EA63
:10017C00034400FB01F1A14209D93C1900F1FF3302
:10018C0080F00181A14240F2FE8002383C44641AA6
:10019C0040EA064000211DB1D4400023C5E90043CC
:1001AC00BDE8F08702B9FFDEB2FA82F2002A4FD125
:1001BC00CB1B4FEA174E1FFA87F80121B3FBFEFC4D
:1001CC00260C0EFB1C3346EA034608FB0CF3B34229
:1001DC0007D9BE190CF1FF3002D2B34200F2EB800A
:1001EC008446F61AA3B2B6FBFEF00EFB106643EA89
:1001FC00064408FB00F8A04507D93C1900F1FF3371
:10020C0002D2A04500F2D2801846A4EB080440EAC2
:10021C000C40C0E78B4208D9002D00F0AF800021C4
:10022C00C5E900060846BDE8F087B3FA83F100295A
:10023C0049D1B34202D3824200F2BB80841A66EBEE
:10024C00030301209C46002DAAD0C5E9004CA7E76A
:10025C00C2F120039740D8409140DE404FEA174E40
:10026C0008434FEA104CB6FBFEF11FFA87F80EFB61
:10027C0011664CEA064601FB08F3B34204FA02F499
:10028C0009D9BE1901F1FF3C80F08E80B34240F2D7
:10029C008B8002393E44F31A86B2B3FBFEF00EFBA0
:1002AC00103346EA034600FB08F3B34207D9BE19E4
:1002BC0000F1FF3C74D2B34272D902383E44F31AB7
:1002CC0040EA01417AE7C1F1200703FA01F422FA6E
:1002DC0007F31C4320FA07F906FA01F34FEA144C12
:1002EC00FE4049EA03094FEA1943B6FBFCFE1FFA2C
:1002FC0084F80CFB1E6643EA06460EFB08FAB24570
:10030C0002FA01F200FA01F308D9A6190EF1FF3036
:10031C0048D2B24546D9AEF1020E2644A6EB0A06E7
:10032C001FFA89F9B6FBFCF00CFB106649EA06468D
:10033C0000FB08F8B04507D9A61900F1FF3C2DD2F7
:10034C00B0452BD90238264440EA0E40A6EB0806ED
:10035C00A0FB02894E45C446CE4618D315D075B3C2
:10036C00B3EB0C0266EB0E0606FA07F722FA01F362
:10037C00CE401F43C5E90076002111E729462846E7
:10038C000EE76646EDE6184601E74345E7D2B8EBC3
:10039C00020C69EB04040138A646E0E76046D3E79B
:1003AC0060468CE78646B9E7614674E702383C4400
:1003BC002BE7084647E7ACF1020C3E4411E729460F
:1003CC00EEE600BF704700BF10B5284801F0F0FE04
:1003DC0027490446274802F079FD4FF0A0430C2230
:1003EC00C3F83427D3F83427234842F44032C3F8F7
:1003FC003427022102F06AFD204803F0A5F92048B9
:10040C00022102F063FD0221204602F035FD1B485B
:10041C0003F09AF90121204602F02EFD1948022121
:10042C0002F054FD00214FF4803002F0CBFA164854
:10043C00022102F04BFD0221204602F01DFD00219D
:10044C004FF4803002F0BEFA0121204602F014FD78
:10045C000E4802F03BFD002000F090FA2120002114
:10046C0002F0B0FA0A4802F031FDFEE7503A000003
:10047C00573A0000683A00007D3A000080841E0064
:10048C008D3A0000AB3A0000B73A0000D13A0000B8
:10049C00003B00002DE9F04F87B00F461946109B2A
:1004AC009DF844B09DF848A01F4C064614251046F4
:1004BC0098464FEAE37950EA010319D1142D139CA5
:1004CC0014BF013530232C4408BF8DF81430152C83
:1004DC001BD0153C002C1ADC1DF8050039460135E3
:1004EC00B047152DF8D1002C19DC07B0BDE8F08F02
:1004FC0042464B46FFF7ECFDA25C0DF80520844606
:10050C000B4660461946013DD5E70024E4E7BBF1F4
:10051C00000FE1D039465046B047013CDAE7394686
:10052C005046B047013CDEE71A3B00000B68013334
:10053C000B60014B1B68184700000020014B186032
:10054C00704700BF000000202DE9F04F002687B057
:10055C0005468B461C4602F1FF394FF0FF383746F3
:10056C00002307E06BB9252800F0FC805946049362
:10057C00A847049B19F8010F0028F3D107B0BDE878
:10058C00F08F7A280AD8622810D8302852D045D853
:10059C00252800F0E5802D2800F0EA80594625201A
:1005AC00A84799F800005946A847D9E7A0F163027B
:1005BC00172AF3D801A151F822F000BF65070000FB
:1005CC0089060000A9050000A9050000A905000086
:1005DC006B06000089060000A9050000A9050000B3
:1005EC006B060000A9050000A9050000A905000084
:1005FC00ED060000A9050000A90500002F0700006A
:10060C00A905000089060000A9050000A905000045
:10061C0031060000A90500006B060000392815D929
:10062C005828BBD199F80030702B63D154F8042BA7
:10063C0000236AE0B8F1000F0BDA002F00F09A806B
:10064C00A0F13008002F08BF022793E7B8F1000F84
:10065C00F6DB0A2202FB0808A8F13008F2E768284A
:10066C0003D1682E06D1482684E76C2802D16C2E63
:10067C0000F08280002E91D106467BE77A2E03D1C2
:10068C0054F8042BD31708E06C2EF9D04C2EF7D16C
:10069C00073424F00704F4E8022375280FD0002A4D
:1006AC0073F100010BDA59462D20CDE90423A8473C
:1006BC00DDE90423524263EB430308F1FF38F91ED2
:1006CC0018BF0121012F0CBF30202020CDE90208DA
:1006DC0001910A21009128465946FFF7DBFE3FE7BE
:1006EC0059463020A84759467820A8474FF00808AB
:1006FC00012797E76C2E99D04C2E97D1E31D23F050
:10070C0007031C465B6854F8082BF91E18BF01211F
:10071C00012F0CBF302020200191CDE902081021BF
:10072C00D8E7A2465AF8043B1C46214614F8010BA4
:10073C0040B9032F22D1CC1AA8EB0404002C06DC00
:10074C0054460DE759460493A847049BEDE75946D8
:10075C002020A847013CF1E754F8040B594623E745
:10076C00594621E71E461F464FF0FF38012301E78B
:10077C000327FFE60127FDE64C26FBE6544603461D
:10078C00F8E600BF07B50B4600210246019103486D
:10079C0001A9FFF7D9FE03B05DF804FB3905000091
:1007AC002DE9F84FB0F8189019F0080804460DD050
:1007BC0001290CBF49F0100949F02009A0F8189044
:1007CC0082F31188BFF36F8FBDE8F88F09F007092A
:1007DC00022907D1204602F086FB0028F0D0012820
:1007EC00238B50D16769218B002F15DA256821F0F6
:1007FC000701C4E9008841F0010121830026218B07
:10080C0001F0070ACA4502D0A368002B5CD10DB9D0
:10081C00002E74D0002358E001F00703581F012864
:10082C0020D821F00701062B256889B2C4E900887D
:10083C000CD1002D2B4638BF00232BB1608B1B68CD
:10084C0001306083002BF8D141F002012183204656
:10085C0002F049FB06460028D1D0238B43F020033D
:10086C002383CBE7042B0CD121F0070189B2218320
:10087C00204602F038FB05460028BFD041F020018D
:10088C0021830025BAE7032809D1216923F0070346
:10089C000E6843F00603238300252F46AFE7042898
:1008AC0006D1216923F007034E6843F00403F2E7F5
:1008BC00052806D1216923F007038E6843F0050350
:1008CC00E9E700252E46E8E7012341F008012183E2
:1008DC0082F31188BFF36F8F03BB002D40D116B18B
:1008EC0025492046B0474FF02003EFF3118283F3E4
:1008FC001188BFF36F8F238B23F008032383238B83
:10090C00D90631D523F0100323830121B4F81890B4
:10091C0009F0070900297FF45BAF51E7A1680029B2
:10092C00DBD00B68D1F804B0002B38BF00239946FC
:10093C0052463B462046D847B9F1000FCDD0D9F8E6
:10094C0000304946EEE739460BF104002D6802F001
:10095C00AEFA814620B13B46524659462046C8471E
:10096C00AB46002DEFD1BAE713F020011EBF23F0E8
:10097C00200323830221C9E7492F0000014B187083
:10098C00704700BF640100202DE9F843264B93F912
:10099C000040A21C994602D102F035FC0446234DBE
:1009AC00631C2C70A84613D0214E002320463360C4
:1009BC0002F021FC64BB02F020FC60B100F070F886
:1009CC0095F9000002F018FCFF232B704FF0FF3458
:1009DC002046BDE8F883174B27461C7098F9000099
:1009EC0002F045FD04B10FB100F05AF8336863B959
:1009FC00012398F900003360FE2389F8003002F0DF
:100A0C00FBFB98F9000002F03DFD98F90040DFE790
:100A1C0095F9000002F005FC07460028DED002F034
:100A2C00EFFB0028DAD0C9E764010020A6040020FF
:100A3C0004000020BA0800202DE9FF47144D154F83
:100A4C00DFF8588000232B80134B1C880646013C92
:100A5C004FF01809631C03D1002004B0BDE8F087E7
:100A6C003B6838F81400039609FB00300023009310
:100A7C00D0F810A003AA0121D04710F1230F01D008
:100A8C000028EAD12B8801332B80013CE2E700BF20
:100A9C008604002000030020840400208804002029
:100AAC002DE9F043114B124D1A882C88114E124F20
:100ABC00A41A002285B0A4B21A804FF018082B8813
:100ACC00A34202D805B0BDE8F08337F814003368B0
:100ADC0008FB0030002301210093D0F81090039103
:100AEC0003AA0134C847A4B2E9E700BF860400207A
:100AFC008404002000030020880400202DE9F74F17
:100B0C001B481C4CDFF868B0DFF8749001F074FBE4
:100B1C0003232380184B804600261FFA86FAD04503
:100B2C00554602D922880E2A02D903B0BDE8F08FAF
:100B3C00DBF80020182101FB05252A699A420CD00C
:100B4C000E4A002752F8041B2868019202F030FC70
:100B5C00019A094B18B929F817A00136DDE70137BE
:100B6C00032FEFD12288511C29F812A02180F4E721
:100B7C000003002084040020553500009839000043
:100B8C0088040020074BBFF35B8F03EB800050E819
:100B9C00003F013340E80032002AF8D1BFF35B8FED
:100BAC00704700BF04030020054BBFF35B8F53F865
:100BBC002000BFF35B8FB0FA80F04009704700BF94
:100BCC000403002010B50748074C01F0F1FA074B5D
:100BDC001860204600F090FD2046FFF7AFFC002087
:100BEC0010BD00BF503A0000FD0B000008030020B0
:100BFC000A2838B5074D044604D1286883680D21AE
:100C0C005B68984728688368E1B25B689847204620
:100C1C0038BD00BF080300202DE9F0410E4FFA68E3
:100C2C00841AA3100D4C5C430546E4B20C2000FB67
:100C3C0004200E464021084402F0FEFA011E05DB9A
:100C4C007B6803EBC404636898470021284633464D
:100C5C00BDE8F041184700BF68010020B76DDBB656
:100C6C002DE9F047DFF85080D8F80C60841BA310F6
:100C7C000F4C5C43E4B20C256543814605F1400002
:100C8C000F463044402102F0F0FA011E0ADB094AFB
:100C9C007319C3E90E27D8F8043053F83430BDE883
:100CAC00F047184748463B46BDE8F047184700BF99
:100CBC00B76DDBB6D932000068010020002270B598
:100CCC0001210446104600F099FA002000F086FA43
:100CDC004FF08043E6680C4903220125C3F81855F0
:100CEC003046C3F8042302F037F900280ADB3564D8
:100CFC00E468054904F11C0002F02EF90028A4BF99
:100D0C00E564002070BD00BFC83900002DE9F0413A
:100D1C000B4E01460C23F0684B43C418D4E90E5714
:100D2C0000224033A263184402F0BDFA2DB13A46BA
:100D3C0030462B46BDE8F0411847BDE8F08100BFB6
:100D4C006801002008B54FF02003EFF3118183F305
:100D5C001188BFF36F8F134A136843F0020013F02E
:100D6C00010310600ED04FF08042D2F80C34D2F850
:100D7C000C2413F0010305D00B4BD868403002F063
:100D8C0092FA012381F31188BFF36F8F23B1BDE871
:100D9C0008400020FFF7BABF4FF0804301221A60D1
:100DAC0008BD00BF6C0300206801002010B5064C84
:100DBC0023782BB94FF4A57002F0C6FC01232370E5
:100DCC00024B01221A6010BDA7040020080000404D
:100DDC00054B00221A6082B01B680193019B034BE8
:100DEC0001221A6002B07047040100400C00004060
:100DFC000D4ABFF35B8F82B052E8003F23F0020133
:100E0C0042E800100028F7D1BFF35B8F13F0010309
:100E1C0007D1064A136013680193019B044B01220E
:100E2C001A6002B0704700BF6C0300200001004044
:100E3C000400004010B588B000230122CDE9063231
:100E4C000193094B04AC01AACDE90444CDE9023469
:100E5C0002F069FA002805DB4FF48042002320469B
:100E6C0001F0F6FD08B010BDEB320000184B07B5D1
:100E7C001A68B2B14FF08042D2F80423D00710D5D3
:100E8C0000221A601B680093009B124BDB68186CE5
:100E9C0010F0070005D1104B1B68990701D5FFF71F
:100EAC0035FF0E4B1A6882B14FF08042D2F8042302
:100EBC0092070AD500221A601B680193019B01203E
:100ECC0003B05DF804EBFFF721BF03B05DF804FB42
:100EDC0000010040680100206C0300200401004068
:100EEC0010B51149BFF35B8F0446012251E8003F56
:100EFC0041E800200028F9D1BFF35B8F43B90B49BF
:100F0C00C8680B491C304B60CB608A6002F037F824
:100F1C00012C06D0022C06D10120BDE8104002F0B5
:100F2C00E1B90020F9E710BD700300206801002032
:100F3C000C030020821C084B22F07F42C3F8402592
:100F4C00D3F80425904200D17047D3F80405821CD5
:100F5C0022F07F42F2E700BF00100140044B002258
:100F6C0082B01A601B680193019B02B0704700BFEE
:100F7C004011014008B5FFF7F1FF074B074AD3F8C2
:100F8C0040051368C01A20F07F4003441360BDE88D
:100F9C00084001F0D1BE00BF0010014074030020D6
:100FAC0038B5104D0024C5F80845FFF7D7FF0E4B98
:100FBC004FF40032C3F880214FF48033C5F804336A
:100FCC0022460121112000F019F9112000F006F938
:100FDC00064A0123136020462B60FFF781FF204651
:100FEC0038BD00BF0010014000E100E008100140D6
:100FFC0070B52A4B2A4C1968D4F80425294D521A7D
:10100C00B0F1FF3F08BF284622F07F43120234D4D0
:10101C00013820EAE070A842A8BF284601334FF4FB
:10102C0080361844C4F80863A84294BF0D184D19B3
:10103C00D4F80405D4F84015FFF790FF091A21F0F5
:10104C007F4120F07F430129C4F84035C4F8446344
:10105C0004D10F2002F078FBFFF780FF124B4FF406
:10106C000032C3F88021D4F804052B1A23F07F43F7
:10107C00012B04D1FFF75EFF0BE00020CEE725F03B
:10108C007F43C4F84035D4F804052D1A023D2B02D9
:10109C00F0D44FF48033C4F8043370BD74030020D3
:1010AC0000100140FFFF7F0000E100E04FF0200244
:1010BC00EFF3118382F31188BFF36F8F064AD2F8D6
:1010CC000405064A1268801A20F07F4083F31188C9
:1010DC00BFF36F8F704700BF0010014074030020F6
:1010EC0010B5114C114AA2610323C4E90433104B0F
:1010FC00E36122664FF480630E4A0F4923626266F5
:10110C0000231022E01DA3626362E3622367E3669F
:10111C006367A26602F042F90849204602F03EF9E4
:10112C002023A37110BD00BF780300205E3B00009C
:10113C00B8040020A8040020673B00006B3B0000B3
:10114C00094A0A49936809689967094958674B68BD
:10115C0043F080534B60002383F31188BFF36F8FF0
:10116C009368986F704700BF440400204C3A00000D
:10117C0000ED00E00F498A684FF038001044EFF39F
:10118C00098C80E8F01F202080F31188BFF36F8F4B
:10119C00094F4FF000664A6A8A603E60506F002328
:1011AC00536780F3118802F1380090E8F01F8CF33C
:1011BC00098870474404002004ED00E01EF0040F81
:1011CC000CBFEFF30880EFF30980816911F8021C62
:1011DC000229FFD001B502F0D6F801BD43B2002BB5
:1011EC0008DB012200F01F0002FA00F05B09024A42
:1011FC0042F82300704700BF00E100E043B2002B2F
:10120C00A8BF03F1604301F10101B8BF064B4FEADF
:10121C004111ACBF03F5614300F00F00C9B2B4BF7C
:10122C00195483F80013704714ED00E0C0E91A124A
:10123C000A44203A22F0070208491360009B5360CD
:10124C00019B9360029BD3604FF08073D36121F0BC
:10125C000101002391618265436770472B300000C8
:10126C00F8B506460C4617461D4600F099F9094B91
:10127C003C4424F007049E60284684F3098800212E
:10128C0063B681F31188BFF36F8F0022002301F046
:10129C00C6FE00BF44040020014910220A607047BA
:1012AC0010ED00E072B6404080F31188BFF36F8FF1
:1012BC00BFF34F8F30BF62B6BFF36F8F704700BF65
:1012CC0030BFFFF7FDBF00BF0E4A08B50E4B22F032
:1012DC007F029A60BFF34F8FBFF36F8FD3F88820D4
:1012EC0022F47002C3F88820EFF3148323F0040374
:1012FC0083F3148800F0B4FF00F0BCFF00F01EF97B
:10130C0000F0F6FF0000000000ED00E001B572B641
:10131C000B4A106A00281EBF0021116202F03EF930
:10132C0062B6EFF30580A0F110004FEAC00005494A
:10133C00014409C99847BDE801400349084700002A
:10134C0044040020543800002D15000002F08DF8E4
:10135C00202080F3118808484FF40061401880F376
:10136C000988EFF314800221084380F31488BFF33B
:10137C006F8FFFF7A9FF0000000E0020EFF308802D
:10138C00EFF30981724601B500F04EF801BD00BFC4
:10139C000C4B9A6A9A6A9A6A920708D55A6B9A6A9F
:1013AC00120604D518B19A6A22F080029A62054B93
:1013BC009A6A9A6A9A6A9A6A002042F0FF029A62C2
:1013CC000870704700ED00E00D4B9A6A9A6A9A6AB1
:1013DC00920508D59A6B9A6A120404D518B19A6AC8
:1013EC0022F400429A62064B9A6A9A6AD20558BF56
:1013FC009A6A9A6A002042F47F429A620870704797
:10140C0000ED00E0074B9A6A9A6A9A6A9A6A9A6A9D
:10141C009A6A9A6A6FEA02426FEA12429A62002052
:10142C00704700BF00ED00E070B5364B5B688AB0CA
:10143C000E46C3F30803002585F31188BFF36F8FA5
:10144C0002F07F41B1F17F4F11D102F00C0108295C
:10145C000DD0110701D4064601250022033B8DF85F
:10146C000720032B47D8DFE803F0043E423B2E460F
:10147C00F3E7244BDA6A92073DD4DC6A14F080441B
:10148C0008D028331B78EBB10DF107010120FFF7D1
:10149C007FFF04469DF8073093B92022314602A8FD
:1014AC0001F092FF099B45B3C3F3080222B96FEA1E
:1014BC0053236FEA4323099302A9204601F061FFED
:1014CC000AB070BD104B1B782BB10DF10701012038
:1014DC00FFF77AFFDDE70D4B188884B2002CD9D0CA
:1014EC00FFF790FFD5E70DF107010020CFE70DF1D5
:1014FC0007010020ECE70024CCE723F4FF7323F072
:10150C000103D8E700ED00E029ED00E02AED00E052
:10151C00024A536943F010035361704700ED00E039
:10152C00044B9968586A884203D003494FF08052A3
:10153C000A6070474404002004ED00E004480023D6
:10154C002021C2180133272B82F80013F9D17047E0
:10155C0000E100E038B504464FF02003EFF31185AD
:10156C0083F31188BFF36F8F01F0F4F80A4B9B687B
:10157C00A3420BD1094B5A68C2F3080212B9284690
:10158C00FFF7DEFD5A6842F080525A602846BDE8EB
:10159C00384002F010B800BF4404002000ED00E019
:1015AC001FB5084B0193084B0293084B039301ABF7
:1015BC000093074A074B0121684600F093F805B0E9
:1015CC005DF804FB000000200000000000000B068A
:1015DC000000002000000120DFF884C0F0B50646B2
:1015EC00002710468F4200DBF0BD56F827E0DEF8EE
:1015FC00044094B343B1651E2C4219D11F2C17D94A
:10160C00DEF80020154213D1202CC2B2DEF80050B7
:10161C00DEF808000FD9B4F1004F0ED8013CB4FA33
:10162C0084F4C4F11F046400072A44EA000406D9B8
:10163C006FF01500D8E70824F6E73E24F4E725F010
:10164C001F05154345F0100544F00104CCF80820A3
:10165C00501CCCF80C50CCF810400137C2E700BF3E
:10166C0090ED00E0034B05225A60BFF34F8FBFF3A0
:10167C006F8F704790ED00E0BFF35F8F014B00223E
:10168C005A60704790ED00E013490868082810B5BF
:10169C001ED8FFF7F1FF114C49680022904201F16E
:1016AC000C0105D10E4B1870FFF7DCFF002010BDAC
:1016BC00A26051F80C3C23F01F03134343F01003BA
:1016CC00E36051F8043C43F0010323610132E5E788
:1016DC004FF0FF30EBE700BFD439000090ED00E095
:1016EC00B808002010B5034C01232278FFF774FFD3
:1016FC00207010BDB8080020014B1860704700BF67
:10170C00A80000204FF02003EFF3118283F311881F
:10171C00BFF36F8F06490123C1F840354FF080416C
:10172C00C1F8783582F31188BFF36F8F00207047B2
:10173C0000E0014020B1034B800143F00103184746
:10174C00704700BF9039000008B5094B1A786AB988
:10175C000121197006200521FFF750FD0620FFF727
:10176C003DFD044B4FF00042C3F80423002008BD9C
:10177C00B9080020006000402B4BF0B546682B48A0
:10178C001340834240D00DD8062B15D005D89BB101
:10179C00022B3BD06FF0150035E0B3F5801FF9D16B
:1017AC00012309E02248834232D0B3F5A00F31D097
:1017BC00B3F5800FEED10223D00654BFC2F340150F
:1017CC00032582F480749705C2F34020C4F30024EF
:1017DC0007D512F4006F77681ED001228A40C7F833
:1017EC000825327A01F01F0141EA421140EA440215
:1017FC0042EA032301F5E0714FF0A04243EA85036E
:10180C0042F821300020F0BD0723D5E70423D3E7AD
:10181C000523D1E70323CFE7520542BF01228A40BB
:10182C00C7F80C25DDE700BF0600F000060010002D
:10183C0002004000F7B5C4684068007A01F01F054B
:10184C00B2F5A03F45EA40150AD105F5E0704FF01E
:10185C00A04656F82000C70707D56FF02200B4E069
:10186C00B2F5005FE06800F0B280E66801208840C5
:10187C0030436669E06001208840B2F5A03FA26960
:10188C000CBF06438643B3F5C02F0CBF0243824303
:10189C00A26122696661B3F5802F0CBF104322EA66
:1018AC0000005B4A2061D2F804030023C0B203F5A8
:1018BC00A27652F82660C6F30426B54240F08C801E
:1018CC0020FA03F6F60740F1878001209840514E2C
:1018DC00BFF35B8FC74356E800CF0CEA070C46E812
:1018EC0000CEBEF1000FF6D1BFF35B8F9B0003F16E
:1018FC00804303F5C043D3F8106526F00106C3F806
:10190C001065C2F80803AA0002F1A042E068D2F800
:10191C000037C84023F4403310F00100C2F8003700
:10192C0053D06069C84010F0010060D0A369394AF7
:10193C00CB40DB075FBF236923FA01F101F0010102
:10194C00C1F1020154BFC9B203210023012606FADA
:10195C0003F4BFF35B8F52E8000F40EA040742E840
:10196C00007CBCF1000FF6D1BFF35B8FD84010F0B8
:10197C00010036D19A0002F1804202F5C042403398
:10198C00D2F8106526F4473626F440769B00C2F850
:10199C0010652D029BB2D2F8106505F4F85503F1D1
:1019AC00804303F5C04345EA01453543C2F8105561
:1019BC0018601B680193019BD2F8103543F00103AA
:1019CC00C2F81035124BC3F8044303B0F0BD012626
:1019DC008E4020EA06004CE70133082B7FF467AFFA
:1019EC0091E70133082BB2D16FF01200EDE72369B8
:1019FC00D2F8005723FA01F101F00101C1F1030102
:101A0C0025F4403343EA0141C2F80017DDE700BF7B
:101A1C00006000403C040020F7B54E490D68002DD5
:101A2C0061D04D4BDA68D3F804C0D368D2E9050411
:101A3C00204323EA0003DCF804001269D0F81045B7
:101A4C00544023EA040401200026002B35D10B60FE
:101A5C000B680093009B4148002301261F46D0F8D9
:101A6C00042306FA03F1114213D09A0002F18042CA
:101A7C0002F5C242116861B103F5A27150F8211050
:101A8C00176012680192C1F3042106FA01F1019A60
:101A9C000C430133082BE2D13CBB65B12E4BD8680B
:101AAC005E68C168D0E90532134321EA03010124C1
:101ABC000025002931D103B0F0BD034210D09CF8B1
:101ACC00087006F01F0242EA4712920002F1A0428F
:101ADC0023EA0003D2F8007727F44037C2F80077E6
:101AEC0001364000B1E72C46B5E71B4FFB6859683F
:101AFC000029D2D00E68002E38BF00268A682240FA
:101B0C0002D04B6838469847002EC6D03368002B5D
:101B1C0038BF002331461E46F0E70C4217D0327A0C
:101B2C0005F01F0343EA42139B00026903F1A04333
:101B3C00EA40D3F8007702F00102C2F1030227F465
:101B4C00403747EA0242C3F8002721EA0401013575
:101B5C006400AEE77C610040B001002000600040F2
:101B6C00024BD3F88004C3F8800470470020004077
:101B7C0030B54B79012B1ED18B79032B1BD1CA7934
:101B8C000AB1012A17D10C7914B1022C13D10E24ED
:101B9C000B68B3F5164F5FD02BD8B3F5165F5DD03D
:101BAC0014D8B3F5966F5BD008D8B3F5967F5AD09E
:101BBC00B3F5167F5AD06FF022004CE0B3F5166FD8
:101BCC0057D0B3F5965FF6D1344B39E0B3F5E14F0E
:101BDC0052D007D8B3F5615F50D0B3F5964FEAD128
:101BEC002F4B2DE047F61225AB42E4D14FF4000306
:101BFC0026E0B3F5613F44D011D8B3F5963F42D0FF
:101C0C0008D84DF6C025AB423FD0B3F5614FD2D1C9
:101C1C00244B15E0B3F5E13FCDD1234B10E0B3F5E8
:101C2C00612F35D007D8214DAB4233D0B3F5E12F1E
:101C3C00C1D11F4B04E01F4DAB42BCD14FF08053C0
:101C4C001D4D2243C5F82435C5F86C25C36803C95E
:101C5C0083E80300002030BD184BF1E7184BEFE789
:101C6C004FF49E23ECE74FF4A033E9E74FF41C3319
:101C7C00E6E74FF41D23E3E7124BE1E74FF46C1357
:101C8C00DEE7114BDCE7114BDAE74FF46503D7E7DE
:101C9C000F4BD5E74FF08063D2E700BF00B01300C5
:101CAC0000A04E0000F0EB0000E0D70190D0030044
:101CBC0000705F0740420F000020004000509D0064
:101CCC000050270000F0750000B0AF0300903A01FF
:101CDC0000D0BE0E084B1A6882B052B100201860BA
:101CEC001B680193019B054BD3F818350B7002B0A0
:101CFC0070474FF0FF30FAE7082100400020004009
:101D0C00F7B50E4601F01AFD1B4D88BB6424012764
:101D1C00BFF35B8F55E8003F002B03D145E8007201
:101D2C00002AF7D1BFF35B8F07D021200021013CA3
:101D3C0000F048FE14F0FF04EAD1104C002222609F
:101D4C0022680192019A0E4A01211160C2F81465B1
:101D5C004FF47A76236823B9012001F0F3FB013E9E
:101D6C00F8D1084B01221A6000232B6003B0F0BDA0
:101D7C0001232B60E1E700BF400400201C21004040
:101D8C00082000400C2000404FF0A04337B5164C03
:101D9C004022C3F80825032100220825C3F8181790
:101DAC00C3F82027C4F814550625C4F80C55202573
:101DBC00C3F80855C3F81417C3F81C270523C4F837
:101DCC0008350723C168C4F81035FFF7D1FE48B9B0
:101DDC000423C4F80035054B18601B680193019B64
:101DEC000123236003B030BD0020004008210040D7
:101DFC002DE9F8431E462E4B01291D6856D1146857
:101E0C00AC422DD0012C2B4931D1D1F80CC5D1F8D5
:101E1C001485D1F810E5D1F808754FF0A04504FAF7
:101E2C000CF90CF5E07CC5F808954FF0030945F862
:101E3C002C9008F5E07C4FF0000845F82C8004FA53
:101E4C0007FC07F5E077C5F808C545F827900EF5AF
:101E5C00E07745F827800425C1F800550C601C601C
:101E6C0016B1089B0021B0470020BDE8F88300257F
:101E7C00C1F80055D1F80C55D1F814E5D1F810750E
:101E8C00D1F808C505F5E0784FF0A0410EF5E07EDD
:101E9C000CF5E07C07F5E077022541F8285041F875
:101EAC002E5041F82C5041F82750D8E71560D7E751
:101EBC004C010020002000400B4B1B685A1C05BF36
:101ECC000A4B0B4A0B4A10680ABF1B781068C0F308
:101EDC000310062B05D1033803288CBF00200120EA
:101EEC0070470020704700BF30010010E00F00F079
:101EFC00E80F00F034010010074B1B78062B09D1BA
:101F0C00064B1B68C3F30313033B032B02D8044A91
:101F1C00D05C704700207047E00F00F0E80F00F035
:101F2C00903B000008B5FFF7C7FF28B17E4B7F4AF6
:101F3C001B68C3F304231360FFF7DEFF10B17C4B67
:101F4C007C4A1A60FFF7B8FF28B17B4B7B4A1B68B1
:101F5C00C3F342331360FFF7CFFF20B1784AD36845
:101F6C0023F08073D360FFF7A7FF40B14FF080439D
:101F7C000022C3F80C21C3F81021C3F83825FFF751
:101F8C00BBFF10B16F4B03221A60FFF7B5FF40B1D6
:101F9C006D4B05221A6001229A6700229A603F223B
:101FAC005A606A4B1A68511C0BBF694B694B1A7803
:101FBC001B6802BF08331B68C3F30313062A4DD1F9
:101FCC00033B032B4AD8644AD35C002B46D04FF01A
:101FDC008052624BD2F80414C3F82015D2F80814BE
:101FEC00C3F82415D2F80C14C3F82815D2F8101421
:101FFC00C3F82C15D2F81414C3F83015D2F81814F1
:10200C00C3F83415D2F81C14C3F84015D2F82014B8
:10201C00C3F84415D2F82414C3F84815D2F8281480
:10202C00C3F84C15D2F82C14C3F85015D2F8301450
:10203C00C3F85415D2F83414C3F86015D2F8381418
:10204C00C3F86415D2F83C14C3F86815D2F84014E0
:10205C00C3F86C15D2F84424C3F87025FFF72CFF95
:10206C0028B13F4B3F4A1B6803F04F031360FFF747
:10207C0023FF48B14FF08043D3F80024D20744BF6C
:10208C006FF00102C3F80024304B1B68062B0CD1F7
:10209C00304B1B68033B032B07D8334AD35C23B16B
:1020AC00324A136843F4806313604FF01023D3F863
:1020BC000022002A03DBD3F80432002B2FDA2C4B3E
:1020CC000122C3F80425D3F80024002AFBD04FF0DA
:1020DC0010221521C2F80012D3F80024002AFBD0DC
:1020EC004FF010231522C3F80422214B1A46D3F8C3
:1020FC0000140029FBD00021C3F80415D2F80034D9
:10210C00002BFBD0BFF34F8F1A491B4BCA6802F44C
:10211C00E0621343CB60BFF34F8F00BFFDE7174B5B
:10212C00174A1A6008BD00BF240300104035014057
:10213C0074C007400DF0ADBA440200103C050040DD
:10214C00F0ED00E0A00500401056004030010010FA
:10215C00E00F00F034010010883B000000C000408C
:10216C0058020010E40E00408C3B00003C1700406D
:10217C0000E0014000ED00E00400FA0558010020E9
:10218C000090D003F8B5094B53F8204001300027DC
:10219C0053F82060A64200D8F8BDD4E90035284693
:1021AC00984708B105B1AF600834F3E7383A00003E
:1021BC000F4B70B50F4C05461E469C4204D10D4C7E
:1021CC00B44208D1002410E0A26812B12268AA42DD
:1021DC000BD01834F1E7A3680BB91834F0E7216879
:1021EC00284601F0E5F80028F7D1204670BD00BF65
:1021FC00C801002068010020034A044B02609B1AAE
:10220C000348DB105843704768010020C8010020C8
:10221C00ABAAAAAA104E114D80B501274FF020028F
:10222C00EFF3118382F31188BFF36F8F01F0A4FADF
:10223C00012102280446D8BF084601F0ADFA204619
:10224C0034622F70FEF7A0FB0130E7D100232B7016
:10225C00FFF728F8E2E700BF44040020BA0800208A
:10226C000248034A0021121A01F0D9B8F8010020E3
:10227C00BC08002008B50648064A0749121A01F0A6
:10228C00A3F8BDE80840054A0549064801F09CB88A
:10229C0000000020F4010020E43B000000000000DE
:1022AC00E43B00000000002008B50C4B012202208A
:1022BC001A70FFF767FF0A4A0A490B4800F006FE3E
:1022CC000320FFF75FFF00F013FCFEF77DF8074AD1
:1022DC00137B23F00103137308BD00BFBB08002060
:1022EC00DB3B0000943B0000B53B00007802002073
:1022FC002DE98048DFF8F490A7B089F30888344DB5
:10230C00344E6B69DFF8E8A0DFF8E880324F43F415
:10231C00007300246B61E02385F82230EC772C7677
:10232C006C76AC766B6A43F4E0236B62FFF7F0F8E3
:10233C00FEF7B2FF4FF0FF33AB62EB62274D40F27A
:10234C000113ADF8243006ABAB602046CDE9204438
:10235C00FFF718FF0120FFF715FF4FF0010B00F0FE
:10236C00D7FA1F4B6E624FF480624146059330469C
:10237C005346CDE9034BCDE90144009400F092FBA8
:10238C00737B304623F00403737301F034F90F238D
:10239C00CDE902431349144B4FF4A0723846CDE9F2
:1023AC0004B4CDE9004400F07DFB7B7BEF6023F0AF
:1023BC0004037B7305F11803C5E906332C75C5F8C6
:1023CC00049053464FF4806241463046FEF748FF76
:1023DC0000ED00E078020020F80100204404002009
:1023EC00DC3B0000C00C0020212200000016002065
:1023FC00B5220000C008002010B5084C23685BB162
:10240C00FEF754FE03462068054A0344BDE810401D
:10241C001361002101F0C0B910BD00BF7C04002085
:10242C0044040020F8B505460C464FF02003EFF3AA
:10243C00118683F31188BFF36F8F0D4B00224FF47D
:10244C00004740F2E73000211A61E7FB05014FF429
:10245C007A720023FDF73CFE064B1860064B1C609D
:10246C00FFF7CAFF86F31188BFF36F8FF8BD00BF6B
:10247C00440400207C040020780400204FF020034A
:10248C00EFF3118183F31188BFF36F8F044B9A68BC
:10249C00D37B013BD37381F31188BFF36F8F7047EC
:1024AC0044040020094B03F12802824205D19B68A9
:1024BC008B4202D14B7BDB0606D1D1E90032136093
:1024CC005A600023C1E90033704700BF4404002068
:1024DC0070B5104C064604F1280001F082F8A36890
:1024EC00597B0546880644BF41F00801597305B96C
:1024FC00E5684EB95A7BD20606D1AA6922B9DA89A7
:10250C007F2A01D9636270BDAB4201D0FFF774FF23
:10251C006562F8E74404002010B54FF02003EFF398
:10252C00118483F31188BFF36F8F084B9A68D37BA8
:10253C000133D3730020FFF7CBFF84F31188BFF373
:10254C006F8FBDE8104001F042B800BF440400207A
:10255C0070B4437BDB062AD1836943BB154A114611
:10256C0051F8284F8C4218BF2346002BD46A38BF31
:10257C000023B3B190F90E6093F90E50AE4203DB19
:10258C00A3420ED01B68F4E75A68C0E90032106011
:10259C005860437B63F07F03437370BC0020FFF7EC
:1025AC0097BFC0E90014D36A1860D062F1E770BC21
:1025BC00704700BF4404002010B54FF02002EFF329
:1025CC00118482F31188BFF36F8F427B510704D4BF
:1025DC0084F31188BFF36F8F10BD22F00402427395
:1025EC00FFF7B6FF21460248BDE8104000F0D8BF07
:1025FC00BC080020F8B501464FF02003EFF311841E
:10260C0083F31188BFF36F8F90F90D30002B02DA32
:10261C001948FFF747FF194A1046D56A50F8283F6A
:10262C00834208BF0023002B38BF0023EBB191F984
:10263C000E7093F90E60B74203DB9D4215D01B68F8
:10264C00F4E75868C1E90030016059604B7B906831
:10265C0063F07F034B73431A58425841FFF738FF1E
:10266C0084F31188BFF36F8FF8BDC1E90005D36AFD
:10267C001960D162EAE700BF6C040020440400201A
:10268C0038B5154A154B146801469868A0421C468B
:10269C0003D1BDE83840FFF7AFBE00251560104AE6
:1026AC001268B2B1C2897F2A13D80E4A90F90E5023
:1026BC00126895420DDB0C4A90420AD0826942B9ED
:1026CC001A698A4202DCFFF795FFE2E7521A1A6197
:1026DC0038BD00232361FBE7740400204404002070
:1026EC007C04002078040020F801002070B504461A
:1026FC00183001F02BF84FF02003EFF3118683F321
:10270C001188BFF36F8F94F90D30002B07DA0F4847
:10271C002146FFF7C7FE637B03F07F0363730C4D09
:10272C00637BA86843F010036373031B5842584142
:10273C00FFF7CEFE86F31188BFF36F8FAB68A34211
:10274C0003D1BDE8704000F042BF70BD6C040020A6
:10275C0044040020036E2DE9F041044603B1984770
:10276C0004F1180000F0F2FF4FF02003EFF3118694
:10277C0083F31188BFF36F8F637BD80623D1A269D3
:10278C000ABB190607D51F482146FFF78BFE637B52
:10279C0003F07F0363731C4B9868021B504250413B
:1027AC00FFF796FE637B43F00803637304F1300874
:1027BC000027256B454500D095B986F31188BFF3EA
:1027CC006F8FBDE8F0819B07ECD5A0682146FFF721
:1027DC0069FE637B23F0020363730023A360E1E7CC
:1027EC0005F1180000F0B2FFA8682946FFF75AFE61
:1027FC006B7BAF6023F002036B73AF672846FFF768
:10280C00A7FED6E76C0400204404002008B590F91C
:10281C000D30002B014606DA0748FFF743FE4B7BD1
:10282C0003F07F034B73054B9868431A5842584189
:10283C00BDE80840FFF74CBE6C04002044040020A7
:10284C00F8B5054600F0C2FF2C184FF02003EFF34B
:10285C00118783F31188BFF36F8F0D4E0D4BB0684A
:10286C00186000F003FFB0680B492A46EB171830CC
:10287C0000F0DAF9B268537B43F010035373384617
:10288C00FEF75EFC00F0A2FF201A20EAE070F8BD13
:10289C004404002074040020233600002DE9F0418C
:1028AC00064614461D464FF02003EFF3118783F3C1
:1028BC001188BFF36F8F00F0E9FE87F31188BFF327
:1028CC006F8F6B1C08BFB4F1FF3F08D022462B461C
:1028DC0006F118000349BDE8F04100F0A5B9BDE8C8
:1028EC00F08100BF2336000010B5074B9868074BEA
:1028FC000C4618601146DDE90223FFF7CFFF204696
:10290C00BDE81040FEF71CBC4404002074040020F9
:10291C00044B002103F12802C3E90A220846FFF701
:10292C0081BD00BF44040020F8B5244C244BA268A0
:10293C009A4230D04FF02003EFF3118583F31188C6
:10294C00BFF36F8FA16804F12800FFF7ABFDA36AFA
:10295C00A268E16A834208BF0023002B38BF002322
:10296C002BB392F90E7093F90E60B74203DB8B42D6
:10297C001DD01B68F4E75968C2E900310A605A603F
:10298C00537B63F07F0353730120FFF7A1FD85F3A5
:10299C001188BFF36F8F4FF02003EFF3118083F397
:1029AC001188BFF36F8FBDE8F840FEF7C9BBC2E9D1
:1029BC000001E36A1A60E262E2E700BF440400200F
:1029CC00F80100200B46013308BFB0F1FF3F10B5F2
:1029DC0006D10B4B9868FFF789FE4FF0FF3010BD06
:1029EC00044648B9FFF7A0FF4FF47A7084FB00341B
:1029FC00D80B40EA4440F2E7FFF722FF0446F3E726
:102A0C0044040020014B9868704700BF4404002028
:102A1C0038B504464FF02003EFF3118583F311888A
:102A2C00BFF36F8F00F05DFE48B10022826700F0AB
:102A3C00E2FD29460548BDE8384000F0B1BDD4E9B7
:102A4C0002329A4218BF0133A360F2E7BC0800209F
:102A5C0037B514461D464FF02003EFF3118183F375
:102A6C001188BFF36F8F836843B1013B836081F39F
:102A7C001188BFF36F8F002003B030BD54EA0503FB
:102A8C0006D181F31188BFF36F8F6FF00F00F3E75E
:102A9C000246CDE900450248FFF726FFECE700BFF0
:102AAC00BC080020F0B587B0DDE90F6700F13005F8
:102ABC00CDE9036786730E9E0296C0E90C550D9EF8
:102ACC00019604250C9E45730025C0E90655077335
:102ADC00C57300960446FEF7A9FB044B9B68C4E93A
:102AEC00175503B11B6F236707B0F0BD44040020DA
:102AFC002DE9F0472A4E2B4D86B0B046B54205F174
:102B0C00300410D3FFF7BAFC264CDFF89CA04FF42E
:102B1C00004940F2E7360027444521D306B0BDE812
:102B2C00F047FFF7F9BC54F8043C059354F8103CFB
:102B3C00049354F8143C039354F8183C029354F83F
:102B4C001C3C019354F8203C009354E90A2354E9AB
:102B5C000C01FFF7A7FF54F8303CDD652546CDE7A7
:102B6C00636A5A1C0DD023EAE37330463946C9FB1D
:102B7C000301B94208BFB042256804D12846FFF7CB
:102B8C001BFD3034C8E74FF47A720023FDF7A0FA2E
:102B9C0002460B4605F11800514600F045F8F0E7E7
:102BAC00CC010020CC01002023360000034B1B6815
:102BBC000BB9FEF77BBA0020704700BF80040020E1
:102BCC0030B5036868B10A4A5268904209D043B1E3
:102BDC00D3E90421D0E90445121945EB0101C3E9FD
:102BEC000421426813605A600023C0E9003330BDF1
:102BFC005C0100200A4B10B51C689C4208BF0024E5
:102C0C00FFF7D4FF44B12369181A064B1B6913B1A3
:102C1C009842A8BF184610BD6FF00040F5E700BF02
:102C2C005C010020440400202DE9F74F0191194666
:102C3C004B1C08BFB2F1FF3F82466CD0541C6FF0A6
:102C4C00010341F100054FF0FF3BB3EB04086BEBC4
:102C5C000509B8F1000F79F100030FDBFFF7A6FFB0
:102C6C00334AD2E9001C6FF001035B1A6BEB0C02C8
:102C7C001E1B62EB0507341A67EBE075019BCAF863
:102C8C0008304FF02003EFF3118683F31188BFF364
:102C9C006F8FFFF78BFF012C75F10003254BB8BF2D
:102CAC0001241A68B8BF0025241845EBE0759A4238
:102CBC00CAE9044501D05F6852B95A68CAF80420C1
:102CCC005A68CAF80030C2F800A0C3F804A014E097
:102CDC00D2E90489DAE904454D4508BF44451DD2C3
:102CEC00B8EB040069EB0501C2E904015168CAE9BB
:102CFC000021C1F800A0C2F804A01A689A4206D0BC
:102D0C00924504D1FFF776FF0021FEF771F986F3A7
:102D1C001188BFF36F8F03B0BDE8F08FB4EB0800E0
:102D2C0065EB0901BA42CAE90401C6D01268C3E7CF
:102D3C00F80200205C0100202DE9F74F0646FFF752
:102D4C009FFC4FF02003EFF3118483F31188BFF342
:102D5C006F8F2D4DDFF8B4A0DFF8B4B02E60514664
:102D6C00D5F800C0DBF800006246D3175845CDE912
:102D7C000023DAE900890ED068B1D0E90467BB42C0
:102D8C0008BFB4451ED2009BB6EB030C019B67EB4E
:102D9C000306C0E904C6009B13EB0802019B4FF02D
:102DAC00000643EB0903C1E900232E60FFF722FF65
:102DBC003146FEF71DF984F31188BFF36F8F03B012
:102DCC00BDE8F08F18EB06084FF000024FF000033F
:102DDC0049EBE679C0E90423ACEB0606CAE90089A5
:102DEC002E60FFF7EDFE84F31188BFF36F8F8368BD
:102DFC0098474FF02003EFF3118483F31188BFF34E
:102E0C006F8F0249ACE700BF80040020F80200205D
:102E1C005C01002010B54FF02003EFF3118483F315
:102E2C001188BFF36F8FFEF741F9064BD3E90023EE
:102E3C00121843F1000384F31188BFF36F8F10460F
:102E4C00194610BDF802002038B5064C064DAC42B0
:102E5C0001D3002038BDD4E90112204600F0BAFCA1
:102E6C001434F4E7CC010020CC01002008B500207C
:102E7C00FDF788FE002008BD1FB5002300930391C9
:102E8C00046903AA0121A04704B010BD034658B140
:102E9C00426802F00302012A03D0032A04D102681B
:102EAC0012B10020986070476FF0150070474268AF
:102EBC00816002F00302032A4FF0000203460CBFAC
:102ECC00006810465A607047002070470FB407B571
:102EDC0004A951F8040B0191FDF754FC03B05DF803
:102EEC0004EB04B07047038B13F0070305D10368A0
:102EFC00002B0CBF002003207047022B05D1438B05
:102F0C00002B14BF002004207047012B05D103684F
:102F1C00002B0CBF0020052070470020704710B517
:102F2C000C4640B139B1081DFFF7B0FF28B9A368B2
:102F3C0033F0030301D06FF0150010BD10B44FF047
:102F4C002004EFF3118284F31188BFF36F8F41617A
:102F5C0010BC0121FDF724BC38B50C46054658B110
:102F6C0051B10B6843B14B6833B11C22002100F006
:102F7C0056FA2C61002038BD6FF01500FBE72DE9E7
:102F8C00F04104460D46FFF7CAFF061E36DB4FF034
:102F9C002003EFF3118283F31188BFF36F8F638BE0
:102FAC00218B4FF6FF70834201F0070734D0022FBC
:102FBC0014D1013363833E46012382F31188BFF39E
:102FCC006F8FDBB10021281DFFF771FF8046A8B180
:102FDC0000233A4629462046C0470FE08B0701D014
:102FEC00062F0ED100232B60636893B9C4E90055FA
:102FFC003E4667B902212046FDF7D2FB3046BDE8BC
:10300C00F081052F0CBF6FF022066FF00406002331
:10301C00D3E71D606560EBE76FF00A06F7E704463F
:10302C0008B5084611461A46A047FFF7EBFCFEF719
:10303C0091FA836800EBC101B3F5004F2CBF51F836
:10304C00220031F81200704700EBC1018068B0F526
:10305C00004F2CBF41F8223021F81230704708B5D0
:10306C000122FFF7E6FF400808BD8368B3F5004F67
:10307C0000EBC10108D34B681AB143F001034B605C
:10308C00704723F00103FAE74B881AB143F00103B0
:10309C004B80704723F00103FAE753000122FFF73E
:1030AC00D3BF80680131B0F5004F2CBF0220012046
:1030BC00081AB0FA80F0C0F11F0070472DE9F041FA
:1030CC0004460D46FFF7CBFFA368B3F5004F01464E
:1030DC0001D3012835D02046FFF7E3FF04EB800233
:1030EC0016699EB9012303FA00F0E3680343E36019
:1030FC00294615612B4602222046FFF7A5FF032225
:10310C0029462046BDE8F041FFF79EBF022231461A
:10311C002046FFF78EFF022203460746294620462B
:10312C00FFF792FF3346032229462046FFF78CFF18
:10313C00032239462B462046FFF786FF02223146F2
:10314C00DFE7BDE8F081B2F5802FF8B52CBF08257C
:10315C000425551BCC1D0D4424F0070425F0070550
:10316C00002200232D1B0460ED08C4E9002300237A
:10317C002946A560E3602046FFF793FF86001B36C7
:10318C00411CF60804F1100218468B4229DB32462A
:10319C0020460021FFF781FFAF1B204601220021B2
:1031AC00FFF763FF3A463146FFF777FF3346314668
:1031BC0020460022FFF748FF294620460022FFF751
:1031CC006CFF3B46294620460022FFF73DFF29466F
:1031DC0020460122FFF749FF3146BDE8F840FFF7D2
:1031EC006DBF42F8040B0133CFE7704708B5FDF70C
:1031FC0085FC002008BD704770470320FDF71CBC00
:10320C000220FDF719BCB0F5F01F08B502D24FF043
:10321C00FF3008BD0020FDF7C7FC0028F7D00020C8
:10322C00F7E700207047C268CBB20C2103FB0121E9
:10323C00086C00F0070070474FF02003EFF3118289
:10324C0083F31188BFF36F8F036813F0C00301D0B1
:10325C008B4207D101230360002082F31188BFF356
:10326C006F8F70474FF0FF30F7E710B54FF020032A
:10327C00EFF3118283F31188BFF36F8F036803F0B0
:10328C000704012C06D10160002082F31188BFF3E2
:10329C006F8F10BD03F0C0038B4214BF4FF0FF3093
:1032AC006FF00F00F1E74FF02003EFF3118283F37F
:1032BC001188BFF36F8F036803F0C00343F0020360
:1032CC00036082F31188BFF36F8F7047C06810B42E
:1032DC00CBB21C2403FB0400002110BC1047104689
:1032EC00FFF796BB4FF08042D2F81834D2F818147E
:1032FC00C903F9D503F003039842F5D1704738B5EB
:10330C00CCB20C2305466343C0684033802118447B
:10331C00FFF792FF002805DB696801EBC4046368C2
:10332C009847002038BD2DE9F041CDB24FF00C0884
:10333C00C46808FB05F8064608F1400080212044CB
:10334C001746FFF792FF002809DB44447B68A36310
:10335C00BB68E363736853F8353098470020BDE8C9
:10336C00F0816FF02200704770477047FDF7B8BED0
:10337C0008B5FFF7FBFF002008BD0021012000F07D
:10338C0000B800F0F0B80146006800F0ECB808B5E1
:10339C00FDF796FFBDE80840FEF7C2B801390346B9
:1033AC0011F8012F0AB91A70704703F8012BF7E7CF
:1033BC00431E013913F8012F11F8010F824201D17C
:1033CC00002AF7D1101A7047F0B581EA0004A5075E
:1033DC0003460BD0013B0A4491421BD1F0BD002A9D
:1033EC00FCD011F8014B03F8014B013A9C07F6D1C4
:1033FC0022F003041D1F96080F19B94205D16FF076
:10340C00030505FB06222344E4E751F804CB45F8F9
:10341C0004CFF2E711F8014B03F8014FDCE770B56C
:10342C00C9B203469C0711D141EA012422F00306DC
:10343C0044EA04451E449408B3420DD16FF00305D1
:10344C0005FB04221A44934209D170BD002AFCD01A
:10345C0003F8011B013AE5E743F8045BECE703F8DA
:10346C00011BF0E74FF0FF307047FEF75BBD40B932
:10347C004FF080430122C3F80025BFF34F8F20BFCC
:10348C00FDE77047002383F31188BFF36F8F7047FC
:10349C0043685B68D3F810350B60002070474368B5
:1034AC005B68D3F8040542400A404240C3F8042547
:1034BC000020704743685B680020C3F8081570470C
:1034CC0043685B680020C3F80C15704743685A6862
:1034DC00D2F804354B40C2F8043500207047C3685D
:1034EC00586830B558B10024814213D108685CB9D2
:1034FC009C685860A14200D198600020086072B9A5
:10350C00002030BD2846EFE720609868814208BF54
:10351C009C60F2E705680446002DF3D13AB15A6875
:10352C000A60986859600028EAD19960E9E76FF061
:10353C001500E6E7C2680B4692E8030083E8030037
:10354C000020704700F000B96FF0220070474FF078
:10355C002002EFF3118382F31188BFF36F8FFEE724
:10356C0008B5FFF7F4FFF8B505460E464FF02003FB
:10357C00EFF3118783F31188BFF36F8FFFF742FAD4
:10358C00314604462846FFF7EBFF87F31188BFF35B
:10359C006F8F2046BDE8F840FDF7DCBFFFF7E5BEB6
:1035AC0021B9EFF3058008B9FDF7CABD81F3118885
:1035BC00BFF36F8F7047034620B9EFF305820AB94A
:1035CC00FDF7BEBD83F31188BFF36F8F70474FF0CB
:1035DC002003EFF3118083F31188BFF36F8FFFF794
:1035EC00EABF03460068834203D0002838BF00209E
:1035FC0070470020704710B54FF02003EFF3118493
:10360C0083F31188BFF36F8FFEF7A2FF84F3118849
:10361C00BFF36F8F10BD38B550F8103C0446A0F1C5
:10362C001801C3B14FF02003EFF3118583F3118818
:10363C00BFF36F8F50F8100CFEF734FF14F80B3CEF
:10364C0023F0020304F80B3C002344F8103C85F3F0
:10365C001188BFF36F8F14F80B3C23F0140304F89C
:10366C000B3C0846BDE83840FFF7C5BF10B54FF01E
:10367C002003EFF3118483F31188BFF36F8FFFF7EF
:10368C00C5F884F31188BFF36F8F10BD38B50446AD
:10369C000D46FFF7BBF8637B43F002036373C5B1C0
:1036AC002B68A5609D4208BF0023002B38BF002368
:1036BC0083B194F90E1093F90E20914204DB6A68E1
:1036CC009A4207D01B68F3E75A68C4E900321460C9
:1036DC005C6038BD6B6863606B6825601C606C60F7
:1036EC00F7E738B54FF02003EFF3118283F311881D
:1036FC00BFF36F8FFFF775FF044682F31188BFF39A
:10370C006F8FC8B14FF02003EFF3118583F311884D
:10371C00BFF36F8F01468068FEF7C4FE637B23F016
:10372C00020363730023A36085F31188BFF36F8FCB
:10373C0004F1180000F00AF8204638BDEFF30580BC
:10374C00003818BF01207047FDF7F4BF10B54FF0DB
:10375C002002EFF3118482F31188BFF36F8F03689B
:10376C003BB1FFF72DFA002084F31188BFF36F8F64
:10377C0010BD6FF01500F7E710B54FF02003EFF315
:10378C00118483F31188BFF36F8FFFF733FA84F33F
:10379C001188BFF36F8F10BD70B504460D464FF006
:1037AC002003EFF3118683F31188BFF36F8FFFF7BC
:1037BC0021FA012805DDA04203DD29462046FDF74C
:1037CC0017FC86F31188BFF36F8F70BD08B5FFF738
:1037DC0021FB08BD10B400F10C04C0E9034410BC7B
:0637EC00FFF7B1BC7047BD
:0237F200FFFFD7
:0837F40018C9FF7F010000006D
:1037FC0011170000000000007D33000000000000E5
:10380C00552E00000000000095160000000000007E
:10381C00C90C000068010020951D000080010020EB
:10382C00D10B000000000000792E00000000000009
:10383C00AD0F00009801002055170000B0010020CA
:08384C00F9310000000000004A
:1038540000000000790E0000000000008733000023
:1038640000000000873300000000000087330000E0
:1038740000000000873300000000000087330000D0
:1038840000000000251A000000000000873300003B
:1038940000000000873300000000000087330000B0
:1038A40000000000873300000000000087330000A0
:1038B4000000000087330000000000008733000090
:1038C4000000000087330000000000008733000080
:1038D400000000008733000000000000810F00009A
:1038E4000000000087330000000000008733000060
:1038F4000000000087330000000000008733000050
:10390400000000008733000000000000873300003F
:10391400000000008733000000000000873300002F
:10392400000000008733000000000000873300001F
:10393400000000008733000000000000873300000F
:1039440000000000873300000000000087330000FF
:1039540000000000873300000000000087330000EF
:1039640000000000873300000000000087330000DF
:1039740000000000873300000000000087330000CF
:08398400000000008733000081
:04398C00FFFFFFFF3B
:103990000338FDD8704700004E3B0000543B000048
:1039A000503A0000410E00000B330000333300009A
:1039B0000000000033320000510D0000FD0D00003A
:1039C000B90D0000DD0D00006D0C0000250C00009D
:1039D0000000000002000000DC39000000000000D0
:1039E000723B000024000207000000207A3B000028
:1039F0001E000B11851700009D340000AB34000041
:103A0000C1340000CD340000D9340000411800005A
:103A1000EB34000000000000FFFFFFFF000000503B
:103A200000000000E11C00000D1D00006D1B0000E7
:103A30007D1B000041350000FC37000034380000D9
:103A4000443800004C38000054380000F5FFFFFFF8
:103A5000554152545F30006E72663532646B5F6E52
:103A600072663532383332000A25732073797374E5
:103A7000656D206F66662064656D6F0A0042757320
:103A8000792D7761697420257520730A004275735A
:103A9000792D7761697420257520732077697468A2
:103AA0002055415254206F66660A00536C6565705C
:103AB00020257520730A00536C65657020257520DC
:103AC0007320776974682055415254206F66660AE6
:103AD00000456E746572696E672073797374656DE5
:103AE000206F66663B207072657373204255545494
:103AF0004F4E3120746F20726573746172740A00C6
:103B00004552524F523A2053797374656D206F6657
:103B100066206661696C65640A0030313233343581
:103B2000363738396162636465660061637469764B
:103B300065006C6F7720706F77657200666F7263D7
:103B4000652073757370656E64006F666600434C24
:103B50004F434B007379735F636C6F636B00546505
:103B6000726D696E616C005254540053454747456D
:103B70005200464C4153485F30005352414D5F3034
:103B8000004750494F5F3000000001010000000174
:103B9000010000007A65706879722D76322E332E1E
:103BA000302D313334322D67373539343966343777
:103BB00030663536002A2A2A20426F6F74696E6794
:103BC000205A6570687972204F53206275696C6461
:103BD000202573202573202A2A2A0A006D61696E28
:043BE00000000000E1
:103BE400D52E000001000000000000000C000020A1
:103BF4000C00002001000000010000000000000093
:103C040000000000000000000000000000000000B0
:103C140000000000000000000000000000000000A0
:103C24000001000048000020480000204800002057
:103C34000000000000000000000000005C00002004
:103C44005C000020010000000100000000000000F2
:103C54000000000000000000000000000000000060
:103C64000000000000000000000000000000000050
:103C74000001000098000020980000209800002017
:103C8400000000000000000071340000000000008B
:103C9400B0000020B000002001000000010000007E
:103CA4000000000000000000000000000000000010
:103CB4000000000000000000000000000000000000
:103CC4000000000000010000EC000020EC000020D7
:103CD400EC000020000000000000000000000000D4
:103CE400000100200001002001000000010000008C
:103CF40000000000000000000000000000000000C0
:103D040000000000000000000000000000000000AF
:103D140000000000000100003C0100203C010020E4
:103D24003C01002000000000000000000100000031
:103D340000C20100000103000090D0035C010020D8
:053D44005C010020FEFF
:033D4900FFFFFF7A
:103D4C004E3B0000B8390000A43900001C030020D1
:103D5C005535000008000020503A0000000000001B
:103D6C00243A000050010020FD1D0000FC00002042
:103D7C00543B0000000000000000000000000000A8
:103D8C006F33000058000020813B0000183A0000FF
:103D9C00F43900002004002055350000AC00002050
:043DAC000000000013
:103DB000CC010020CC010020000000000000000029
:103DC0000F000000E0010020E001002000000000E2
:083DD000000000000F000000DC
:04000003000013598D
:00000001FF
